{
  "_format": "hh-sol-artifact-1",
  "contractName": "NFTDegree",
  "sourceName": "src/backend/contracts/NFTDegree.sol",
  "abi": [
    {
      "inputs": [],
      "stateMutability": "nonpayable",
      "type": "constructor"
    },
    {
      "anonymous": false,
      "inputs": [
        {
          "indexed": true,
          "internalType": "address",
          "name": "owner",
          "type": "address"
        },
        {
          "indexed": true,
          "internalType": "address",
          "name": "approved",
          "type": "address"
        },
        {
          "indexed": true,
          "internalType": "uint256",
          "name": "tokenId",
          "type": "uint256"
        }
      ],
      "name": "Approval",
      "type": "event"
    },
    {
      "anonymous": false,
      "inputs": [
        {
          "indexed": true,
          "internalType": "address",
          "name": "owner",
          "type": "address"
        },
        {
          "indexed": true,
          "internalType": "address",
          "name": "operator",
          "type": "address"
        },
        {
          "indexed": false,
          "internalType": "bool",
          "name": "approved",
          "type": "bool"
        }
      ],
      "name": "ApprovalForAll",
      "type": "event"
    },
    {
      "anonymous": false,
      "inputs": [
        {
          "indexed": true,
          "internalType": "address",
          "name": "from",
          "type": "address"
        },
        {
          "indexed": true,
          "internalType": "address",
          "name": "to",
          "type": "address"
        },
        {
          "indexed": true,
          "internalType": "uint256",
          "name": "tokenId",
          "type": "uint256"
        }
      ],
      "name": "Transfer",
      "type": "event"
    },
    {
      "inputs": [
        {
          "internalType": "address",
          "name": "to",
          "type": "address"
        },
        {
          "internalType": "uint256",
          "name": "tokenId",
          "type": "uint256"
        }
      ],
      "name": "approve",
      "outputs": [],
      "stateMutability": "nonpayable",
      "type": "function"
    },
    {
      "inputs": [
        {
          "internalType": "address",
          "name": "owner",
          "type": "address"
        }
      ],
      "name": "balanceOf",
      "outputs": [
        {
          "internalType": "uint256",
          "name": "",
          "type": "uint256"
        }
      ],
      "stateMutability": "view",
      "type": "function"
    },
    {
      "inputs": [
        {
          "internalType": "address",
          "name": "add_owner",
          "type": "address"
        },
        {
          "internalType": "uint256",
          "name": "_tokenId",
          "type": "uint256"
        },
        {
          "internalType": "string",
          "name": "name",
          "type": "string"
        },
        {
          "internalType": "string",
          "name": "metadataURI",
          "type": "string"
        }
      ],
      "name": "createNFT",
      "outputs": [],
      "stateMutability": "nonpayable",
      "type": "function"
    },
    {
      "inputs": [
        {
          "internalType": "uint256",
          "name": "tokenId",
          "type": "uint256"
        }
      ],
      "name": "getApproved",
      "outputs": [
        {
          "internalType": "address",
          "name": "",
          "type": "address"
        }
      ],
      "stateMutability": "view",
      "type": "function"
    },
    {
      "inputs": [
        {
          "internalType": "uint256",
          "name": "tokenId",
          "type": "uint256"
        }
      ],
      "name": "getNFT",
      "outputs": [
        {
          "internalType": "string",
          "name": "",
          "type": "string"
        },
        {
          "internalType": "string",
          "name": "",
          "type": "string"
        }
      ],
      "stateMutability": "view",
      "type": "function"
    },
    {
      "inputs": [
        {
          "internalType": "address",
          "name": "owner",
          "type": "address"
        },
        {
          "internalType": "address",
          "name": "operator",
          "type": "address"
        }
      ],
      "name": "isApprovedForAll",
      "outputs": [
        {
          "internalType": "bool",
          "name": "",
          "type": "bool"
        }
      ],
      "stateMutability": "view",
      "type": "function"
    },
    {
      "inputs": [],
      "name": "name",
      "outputs": [
        {
          "internalType": "string",
          "name": "",
          "type": "string"
        }
      ],
      "stateMutability": "view",
      "type": "function"
    },
    {
      "inputs": [
        {
          "internalType": "uint256",
          "name": "tokenId",
          "type": "uint256"
        }
      ],
      "name": "ownerOf",
      "outputs": [
        {
          "internalType": "address",
          "name": "",
          "type": "address"
        }
      ],
      "stateMutability": "view",
      "type": "function"
    },
    {
      "inputs": [
        {
          "internalType": "address",
          "name": "from",
          "type": "address"
        },
        {
          "internalType": "address",
          "name": "to",
          "type": "address"
        },
        {
          "internalType": "uint256",
          "name": "tokenId",
          "type": "uint256"
        }
      ],
      "name": "safeTransferFrom",
      "outputs": [],
      "stateMutability": "nonpayable",
      "type": "function"
    },
    {
      "inputs": [
        {
          "internalType": "address",
          "name": "from",
          "type": "address"
        },
        {
          "internalType": "address",
          "name": "to",
          "type": "address"
        },
        {
          "internalType": "uint256",
          "name": "tokenId",
          "type": "uint256"
        },
        {
          "internalType": "bytes",
          "name": "_data",
          "type": "bytes"
        }
      ],
      "name": "safeTransferFrom",
      "outputs": [],
      "stateMutability": "nonpayable",
      "type": "function"
    },
    {
      "inputs": [
        {
          "internalType": "address",
          "name": "operator",
          "type": "address"
        },
        {
          "internalType": "bool",
          "name": "approved",
          "type": "bool"
        }
      ],
      "name": "setApprovalForAll",
      "outputs": [],
      "stateMutability": "nonpayable",
      "type": "function"
    },
    {
      "inputs": [
        {
          "internalType": "bytes4",
          "name": "interfaceId",
          "type": "bytes4"
        }
      ],
      "name": "supportsInterface",
      "outputs": [
        {
          "internalType": "bool",
          "name": "",
          "type": "bool"
        }
      ],
      "stateMutability": "view",
      "type": "function"
    },
    {
      "inputs": [],
      "name": "symbol",
      "outputs": [
        {
          "internalType": "string",
          "name": "",
          "type": "string"
        }
      ],
      "stateMutability": "view",
      "type": "function"
    },
    {
      "inputs": [
        {
          "internalType": "uint256",
          "name": "tokenId",
          "type": "uint256"
        }
      ],
      "name": "tokenURI",
      "outputs": [
        {
          "internalType": "string",
          "name": "",
          "type": "string"
        }
      ],
      "stateMutability": "view",
      "type": "function"
    },
    {
      "inputs": [
        {
          "internalType": "address",
          "name": "from",
          "type": "address"
        },
        {
          "internalType": "address",
          "name": "to",
          "type": "address"
        },
        {
          "internalType": "uint256",
          "name": "tokenId",
          "type": "uint256"
        }
      ],
      "name": "transferFrom",
      "outputs": [],
      "stateMutability": "nonpayable",
      "type": "function"
    }
  ],
  "bytecode": "0x60806040523480156200001157600080fd5b506040518060400160405280600681526020016544656772656560d01b8152506040518060400160405280600681526020016511195953919560d21b81525081600090805190602001906200006892919062000087565b5080516200007e90600190602084019062000087565b5050506200016a565b82805462000095906200012d565b90600052602060002090601f016020900481019282620000b9576000855562000104565b82601f10620000d457805160ff191683800117855562000104565b8280016001018555821562000104579182015b8281111562000104578251825591602001919060010190620000e7565b506200011292915062000116565b5090565b5b8082111562000112576000815560010162000117565b600181811c908216806200014257607f821691505b602082108114156200016457634e487b7160e01b600052602260045260246000fd5b50919050565b611ddc806200017a6000396000f3fe608060405234801561001057600080fd5b50600436106100f55760003560e01c80636352211e11610097578063a22cb46511610066578063a22cb4651461021a578063b88d4fde1461022d578063c87b56dd14610240578063e985e9c51461025357600080fd5b80636352211e146101cb57806370a08231146101de5780637d80ad8b146101ff57806395d89b411461021257600080fd5b8063095ea7b3116100d3578063095ea7b31461016f57806323b872dd1461018457806342842e0e14610197578063576f7ea7146101aa57600080fd5b806301ffc9a7146100fa57806306fdde0314610122578063081812fc14610137575b600080fd5b61010d610108366004611a85565b61029c565b60405190151581526020015b60405180910390f35b61012a610381565b6040516101199190611b97565b61014a610145366004611abd565b610413565b60405173ffffffffffffffffffffffffffffffffffffffff9091168152602001610119565b61018261017d3660046119ed565b6104d8565b005b6101826101923660046118ff565b610631565b6101826101a53660046118ff565b6106b8565b6101bd6101b8366004611abd565b6106d3565b604051610119929190611baa565b61014a6101d9366004611abd565b610885565b6101f16101ec3660046118b3565b61091d565b604051908152602001610119565b61018261020d366004611a16565b6109d1565b61012a610a33565b6101826102283660046119b3565b610a42565b61018261023b36600461193a565b610a51565b61012a61024e366004611abd565b610adf565b61010d6102613660046118cd565b73ffffffffffffffffffffffffffffffffffffffff918216600090815260056020908152604080832093909416825291909152205460ff1690565b60007fffffffff0000000000000000000000000000000000000000000000000000000082167f80ac58cd00000000000000000000000000000000000000000000000000000000148061032f57507fffffffff0000000000000000000000000000000000000000000000000000000082167f5b5e139f00000000000000000000000000000000000000000000000000000000145b8061037b57507f01ffc9a7000000000000000000000000000000000000000000000000000000007fffffffff000000000000000000000000000000000000000000000000000000008316145b92915050565b60606000805461039090611c47565b80601f01602080910402602001604051908101604052809291908181526020018280546103bc90611c47565b80156104095780601f106103de57610100808354040283529160200191610409565b820191906000526020600020905b8154815290600101906020018083116103ec57829003601f168201915b5050505050905090565b60008181526002602052604081205473ffffffffffffffffffffffffffffffffffffffff166104af5760405162461bcd60e51b815260206004820152602c60248201527f4552433732313a20617070726f76656420717565727920666f72206e6f6e657860448201527f697374656e7420746f6b656e000000000000000000000000000000000000000060648201526084015b60405180910390fd5b5060009081526004602052604090205473ffffffffffffffffffffffffffffffffffffffff1690565b60006104e382610885565b90508073ffffffffffffffffffffffffffffffffffffffff168373ffffffffffffffffffffffffffffffffffffffff1614156105875760405162461bcd60e51b815260206004820152602160248201527f4552433732313a20617070726f76616c20746f2063757272656e74206f776e6560448201527f720000000000000000000000000000000000000000000000000000000000000060648201526084016104a6565b3373ffffffffffffffffffffffffffffffffffffffff821614806105b057506105b08133610261565b6106225760405162461bcd60e51b815260206004820152603860248201527f4552433732313a20617070726f76652063616c6c6572206973206e6f74206f7760448201527f6e6572206e6f7220617070726f76656420666f7220616c6c000000000000000060648201526084016104a6565b61062c8383610be2565b505050565b61063b3382610c82565b6106ad5760405162461bcd60e51b815260206004820152603160248201527f4552433732313a207472616e736665722063616c6c6572206973206e6f74206f60448201527f776e6572206e6f7220617070726f76656400000000000000000000000000000060648201526084016104a6565b61062c838383610dd8565b61062c83838360405180602001604052806000815250610a51565b6060806107048360009081526002602052604090205473ffffffffffffffffffffffffffffffffffffffff16151590565b6107505760405162461bcd60e51b815260206004820152601060248201527f456c204e4654206e6f206578697374650000000000000000000000000000000060448201526064016104a6565b600083815260066020526040902080546001820190829061077090611c47565b80601f016020809104026020016040519081016040528092919081815260200182805461079c90611c47565b80156107e95780601f106107be576101008083540402835291602001916107e9565b820191906000526020600020905b8154815290600101906020018083116107cc57829003601f168201915b505050505091508080546107fc90611c47565b80601f016020809104026020016040519081016040528092919081815260200182805461082890611c47565b80156108755780601f1061084a57610100808354040283529160200191610875565b820191906000526020600020905b81548152906001019060200180831161085857829003601f168201915b5050505050905091509150915091565b60008181526002602052604081205473ffffffffffffffffffffffffffffffffffffffff168061037b5760405162461bcd60e51b815260206004820152602960248201527f4552433732313a206f776e657220717565727920666f72206e6f6e657869737460448201527f656e7420746f6b656e000000000000000000000000000000000000000000000060648201526084016104a6565b600073ffffffffffffffffffffffffffffffffffffffff82166109a85760405162461bcd60e51b815260206004820152602a60248201527f4552433732313a2062616c616e636520717565727920666f7220746865207a6560448201527f726f20616464726573730000000000000000000000000000000000000000000060648201526084016104a6565b5073ffffffffffffffffffffffffffffffffffffffff1660009081526003602052604090205490565b6109db848461100b565b6040805180820182528381526020808201849052600086815260068252929092208151805192939192610a11928492019061173e565b506020828101518051610a2a926001850192019061173e565b50505050505050565b60606001805461039090611c47565b610a4d338383611025565b5050565b610a5b3383610c82565b610acd5760405162461bcd60e51b815260206004820152603160248201527f4552433732313a207472616e736665722063616c6c6572206973206e6f74206f60448201527f776e6572206e6f7220617070726f76656400000000000000000000000000000060648201526084016104a6565b610ad984848484611139565b50505050565b60008181526002602052604090205460609073ffffffffffffffffffffffffffffffffffffffff16610b795760405162461bcd60e51b815260206004820152602f60248201527f4552433732314d657461646174613a2055524920717565727920666f72206e6f60448201527f6e6578697374656e7420746f6b656e000000000000000000000000000000000060648201526084016104a6565b6000610b9060408051602081019091526000815290565b90506000815111610bb05760405180602001604052806000815250610bdb565b80610bba846111c2565b604051602001610bcb929190611b1f565b6040516020818303038152906040525b9392505050565b600081815260046020526040902080547fffffffffffffffffffffffff00000000000000000000000000000000000000001673ffffffffffffffffffffffffffffffffffffffff84169081179091558190610c3c82610885565b73ffffffffffffffffffffffffffffffffffffffff167f8c5be1e5ebec7d5bd14f71427d1e84f3dd0314c0f7b2291e5b200ac8c7c3b92560405160405180910390a45050565b60008181526002602052604081205473ffffffffffffffffffffffffffffffffffffffff16610d195760405162461bcd60e51b815260206004820152602c60248201527f4552433732313a206f70657261746f7220717565727920666f72206e6f6e657860448201527f697374656e7420746f6b656e000000000000000000000000000000000000000060648201526084016104a6565b6000610d2483610885565b90508073ffffffffffffffffffffffffffffffffffffffff168473ffffffffffffffffffffffffffffffffffffffff161480610d9357508373ffffffffffffffffffffffffffffffffffffffff16610d7b84610413565b73ffffffffffffffffffffffffffffffffffffffff16145b80610dd0575073ffffffffffffffffffffffffffffffffffffffff80821660009081526005602090815260408083209388168352929052205460ff165b949350505050565b8273ffffffffffffffffffffffffffffffffffffffff16610df882610885565b73ffffffffffffffffffffffffffffffffffffffff1614610e815760405162461bcd60e51b815260206004820152602560248201527f4552433732313a207472616e736665722066726f6d20696e636f72726563742060448201527f6f776e657200000000000000000000000000000000000000000000000000000060648201526084016104a6565b73ffffffffffffffffffffffffffffffffffffffff8216610f095760405162461bcd60e51b8152602060048201526024808201527f4552433732313a207472616e7366657220746f20746865207a65726f2061646460448201527f726573730000000000000000000000000000000000000000000000000000000060648201526084016104a6565b610f14600082610be2565b73ffffffffffffffffffffffffffffffffffffffff83166000908152600360205260408120805460019290610f4a908490611c04565b909155505073ffffffffffffffffffffffffffffffffffffffff82166000908152600360205260408120805460019290610f85908490611bd8565b909155505060008181526002602052604080822080547fffffffffffffffffffffffff00000000000000000000000000000000000000001673ffffffffffffffffffffffffffffffffffffffff86811691821790925591518493918716917fddf252ad1be2c89b69c2b068fc378daa952ba7f163c4a11628f55a4df523b3ef91a4505050565b610a4d828260405180602001604052806000815250611342565b8173ffffffffffffffffffffffffffffffffffffffff168373ffffffffffffffffffffffffffffffffffffffff1614156110a15760405162461bcd60e51b815260206004820152601960248201527f4552433732313a20617070726f766520746f2063616c6c65720000000000000060448201526064016104a6565b73ffffffffffffffffffffffffffffffffffffffff83811660008181526005602090815260408083209487168084529482529182902080547fffffffffffffffffffffffffffffffffffffffffffffffffffffffffffffff001686151590811790915591519182527f17307eab39ab6107e8899845ad3d59bd9653f200f220920489ca2b5937696c31910160405180910390a3505050565b611144848484610dd8565b611150848484846113cb565b610ad95760405162461bcd60e51b815260206004820152603260248201527f4552433732313a207472616e7366657220746f206e6f6e20455243373231526560448201527f63656976657220696d706c656d656e746572000000000000000000000000000060648201526084016104a6565b60608161120257505060408051808201909152600181527f3000000000000000000000000000000000000000000000000000000000000000602082015290565b8160005b811561122c578061121681611c9b565b91506112259050600a83611bf0565b9150611206565b60008167ffffffffffffffff81111561126e577f4e487b7100000000000000000000000000000000000000000000000000000000600052604160045260246000fd5b6040519080825280601f01601f191660200182016040528015611298576020820181803683370190505b5090505b8415610dd0576112ad600183611c04565b91506112ba600a86611cd4565b6112c5906030611bd8565b60f81b818381518110611301577f4e487b7100000000000000000000000000000000000000000000000000000000600052603260045260246000fd5b60200101907effffffffffffffffffffffffffffffffffffffffffffffffffffffffffffff1916908160001a90535061133b600a86611bf0565b945061129c565b61134c83836115b0565b61135960008484846113cb565b61062c5760405162461bcd60e51b815260206004820152603260248201527f4552433732313a207472616e7366657220746f206e6f6e20455243373231526560448201527f63656976657220696d706c656d656e746572000000000000000000000000000060648201526084016104a6565b600073ffffffffffffffffffffffffffffffffffffffff84163b156115a5576040517f150b7a0200000000000000000000000000000000000000000000000000000000815273ffffffffffffffffffffffffffffffffffffffff85169063150b7a0290611442903390899088908890600401611b4e565b602060405180830381600087803b15801561145c57600080fd5b505af19250505080156114aa575060408051601f3d9081017fffffffffffffffffffffffffffffffffffffffffffffffffffffffffffffffe01682019092526114a791810190611aa1565b60015b61155a573d8080156114d8576040519150601f19603f3d011682016040523d82523d6000602084013e6114dd565b606091505b5080516115525760405162461bcd60e51b815260206004820152603260248201527f4552433732313a207472616e7366657220746f206e6f6e20455243373231526560448201527f63656976657220696d706c656d656e746572000000000000000000000000000060648201526084016104a6565b805181602001fd5b7fffffffff00000000000000000000000000000000000000000000000000000000167f150b7a0200000000000000000000000000000000000000000000000000000000149050610dd0565b506001949350505050565b73ffffffffffffffffffffffffffffffffffffffff82166116135760405162461bcd60e51b815260206004820181905260248201527f4552433732313a206d696e7420746f20746865207a65726f206164647265737360448201526064016104a6565b60008181526002602052604090205473ffffffffffffffffffffffffffffffffffffffff16156116855760405162461bcd60e51b815260206004820152601c60248201527f4552433732313a20746f6b656e20616c7265616479206d696e7465640000000060448201526064016104a6565b73ffffffffffffffffffffffffffffffffffffffff821660009081526003602052604081208054600192906116bb908490611bd8565b909155505060008181526002602052604080822080547fffffffffffffffffffffffff00000000000000000000000000000000000000001673ffffffffffffffffffffffffffffffffffffffff861690811790915590518392907fddf252ad1be2c89b69c2b068fc378daa952ba7f163c4a11628f55a4df523b3ef908290a45050565b82805461174a90611c47565b90600052602060002090601f01602090048101928261176c57600085556117b2565b82601f1061178557805160ff19168380011785556117b2565b828001600101855582156117b2579182015b828111156117b2578251825591602001919060010190611797565b506117be9291506117c2565b5090565b5b808211156117be57600081556001016117c3565b600067ffffffffffffffff808411156117f2576117f2611d46565b604051601f85017fffffffffffffffffffffffffffffffffffffffffffffffffffffffffffffffe0908116603f0116810190828211818310171561183857611838611d46565b8160405280935085815286868601111561185157600080fd5b858560208301376000602087830101525050509392505050565b803573ffffffffffffffffffffffffffffffffffffffff8116811461188f57600080fd5b919050565b600082601f8301126118a4578081fd5b610bdb838335602085016117d7565b6000602082840312156118c4578081fd5b610bdb8261186b565b600080604083850312156118df578081fd5b6118e88361186b565b91506118f66020840161186b565b90509250929050565b600080600060608486031215611913578081fd5b61191c8461186b565b925061192a6020850161186b565b9150604084013590509250925092565b6000806000806080858703121561194f578081fd5b6119588561186b565b93506119666020860161186b565b925060408501359150606085013567ffffffffffffffff811115611988578182fd5b8501601f81018713611998578182fd5b6119a7878235602084016117d7565b91505092959194509250565b600080604083850312156119c5578182fd5b6119ce8361186b565b9150602083013580151581146119e2578182fd5b809150509250929050565b600080604083850312156119ff578182fd5b611a088361186b565b946020939093013593505050565b60008060008060808587031215611a2b578384fd5b611a348561186b565b935060208501359250604085013567ffffffffffffffff80821115611a57578384fd5b611a6388838901611894565b93506060870135915080821115611a78578283fd5b506119a787828801611894565b600060208284031215611a96578081fd5b8135610bdb81611d75565b600060208284031215611ab2578081fd5b8151610bdb81611d75565b600060208284031215611ace578081fd5b5035919050565b60008151808452611aed816020860160208601611c1b565b601f017fffffffffffffffffffffffffffffffffffffffffffffffffffffffffffffffe0169290920160200192915050565b60008351611b31818460208801611c1b565b835190830190611b45818360208801611c1b565b01949350505050565b600073ffffffffffffffffffffffffffffffffffffffff808716835280861660208401525083604083015260806060830152611b8d6080830184611ad5565b9695505050505050565b602081526000610bdb6020830184611ad5565b604081526000611bbd6040830185611ad5565b8281036020840152611bcf8185611ad5565b95945050505050565b60008219821115611beb57611beb611ce8565b500190565b600082611bff57611bff611d17565b500490565b600082821015611c1657611c16611ce8565b500390565b60005b83811015611c36578181015183820152602001611c1e565b83811115610ad95750506000910152565b600181811c90821680611c5b57607f821691505b60208210811415611c95577f4e487b7100000000000000000000000000000000000000000000000000000000600052602260045260246000fd5b50919050565b60007fffffffffffffffffffffffffffffffffffffffffffffffffffffffffffffffff821415611ccd57611ccd611ce8565b5060010190565b600082611ce357611ce3611d17565b500690565b7f4e487b7100000000000000000000000000000000000000000000000000000000600052601160045260246000fd5b7f4e487b7100000000000000000000000000000000000000000000000000000000600052601260045260246000fd5b7f4e487b7100000000000000000000000000000000000000000000000000000000600052604160045260246000fd5b7fffffffff0000000000000000000000000000000000000000000000000000000081168114611da357600080fd5b5056fea2646970667358221220fc4c9ebd52fe980edb44d47d27b679e8f661d43a0d1ec804472d4ca80dc546dd64736f6c63430008040033",
  "linkReferences": {},
  "deployedLinkReferences": {}
}